{
  "contractName": "RegistrationSystem",
  "abi": [
    {
      "constant": true,
      "inputs": [
        {
          "name": "",
          "type": "uint256"
        }
      ],
      "name": "events",
      "outputs": [
        {
          "name": "name",
          "type": "string"
        },
        {
          "name": "eventNum",
          "type": "uint256"
        },
        {
          "name": "price",
          "type": "uint256"
        },
        {
          "name": "expiresOn",
          "type": "uint256"
        },
        {
          "name": "maxParticipants",
          "type": "uint256"
        },
        {
          "name": "state",
          "type": "uint8"
        },
        {
          "name": "organizer",
          "type": "address"
        }
      ],
      "payable": false,
      "stateMutability": "view",
      "type": "function"
    },
    {
      "constant": true,
      "inputs": [
        {
          "name": "",
          "type": "address"
        },
        {
          "name": "",
          "type": "uint256"
        }
      ],
      "name": "eventsByCreator",
      "outputs": [
        {
          "name": "",
          "type": "uint256"
        }
      ],
      "payable": false,
      "stateMutability": "view",
      "type": "function"
    },
    {
      "constant": true,
      "inputs": [
        {
          "name": "",
          "type": "uint256"
        },
        {
          "name": "",
          "type": "uint256"
        }
      ],
      "name": "participants",
      "outputs": [
        {
          "name": "",
          "type": "address"
        }
      ],
      "payable": false,
      "stateMutability": "view",
      "type": "function"
    },
    {
      "inputs": [],
      "payable": true,
      "stateMutability": "payable",
      "type": "constructor"
    },
    {
      "constant": false,
      "inputs": [
        {
          "name": "_name",
          "type": "string"
        },
        {
          "name": "_price",
          "type": "uint256"
        },
        {
          "name": "_timeOpen",
          "type": "uint256"
        },
        {
          "name": "_maxParticipants",
          "type": "uint256"
        }
      ],
      "name": "createEvent",
      "outputs": [
        {
          "name": "",
          "type": "bool"
        }
      ],
      "payable": true,
      "stateMutability": "payable",
      "type": "function"
    },
    {
      "constant": false,
      "inputs": [
        {
          "name": "_eventNum",
          "type": "uint256"
        }
      ],
      "name": "registerForEvent",
      "outputs": [
        {
          "name": "",
          "type": "bool"
        }
      ],
      "payable": true,
      "stateMutability": "payable",
      "type": "function"
    },
    {
      "constant": false,
      "inputs": [
        {
          "name": "_eventNum",
          "type": "uint256"
        }
      ],
      "name": "closeEvent",
      "outputs": [],
      "payable": false,
      "stateMutability": "nonpayable",
      "type": "function"
    },
    {
      "constant": false,
      "inputs": [
        {
          "name": "_eventNum",
          "type": "uint256"
        }
      ],
      "name": "openEvent",
      "outputs": [],
      "payable": false,
      "stateMutability": "nonpayable",
      "type": "function"
    },
    {
      "constant": true,
      "inputs": [
        {
          "name": "_creator",
          "type": "address"
        }
      ],
      "name": "getEventsByCreator",
      "outputs": [
        {
          "name": "",
          "type": "uint256[]"
        }
      ],
      "payable": false,
      "stateMutability": "view",
      "type": "function"
    },
    {
      "constant": true,
      "inputs": [
        {
          "name": "_eventNum",
          "type": "uint256"
        }
      ],
      "name": "getParticipantCount",
      "outputs": [
        {
          "name": "",
          "type": "uint256"
        }
      ],
      "payable": false,
      "stateMutability": "view",
      "type": "function"
    },
    {
      "constant": false,
      "inputs": [],
      "name": "withdrawFees",
      "outputs": [],
      "payable": false,
      "stateMutability": "nonpayable",
      "type": "function"
    },
    {
      "constant": false,
      "inputs": [
        {
          "name": "_fee",
          "type": "uint256"
        }
      ],
      "name": "setCreationFee",
      "outputs": [],
      "payable": false,
      "stateMutability": "nonpayable",
      "type": "function"
    },
    {
      "constant": true,
      "inputs": [],
      "name": "getCreationFee",
      "outputs": [
        {
          "name": "",
          "type": "uint256"
        }
      ],
      "payable": false,
      "stateMutability": "view",
      "type": "function"
    }
  ],
  "bytecode": "0x6080604052662386f26fc10000600255336000806101000a81548173ffffffffffffffffffffffffffffffffffffffff021916908373ffffffffffffffffffffffffffffffffffffffff1602179055506000600181905550611315806100666000396000f3fe6080604052600436106100ba576000357c0100000000000000000000000000000000000000000000000000000000900463ffffffff1680630374ab0b146100bf5780630b791430146101b057806320020581146102c85780632ee07c001461036e57806330f9f0f6146103a9578063406db84314610418578063476343ee1461045e57806381fb1fb41461047557806386ae5fec146104fa5780638e07c6bf14610549578063b7d8622514610584578063db07b68e146105bf575b600080fd5b610196600480360360808110156100d557600080fd5b81019080803590602001906401000000008111156100f257600080fd5b82018360208201111561010457600080fd5b8035906020019184600183028401116401000000008311171561012657600080fd5b91908080601f016020809104026020016040519081016040528093929190818152602001838380828437600081840152601f19601f8201169050808301925050505050505091929192908035906020019092919080359060200190929190803590602001909291905050506105ea565b604051808215151515815260200191505060405180910390f35b3480156101bc57600080fd5b506101e9600480360360208110156101d357600080fd5b81019080803590602001909291905050506107c3565b604051808060200188815260200187815260200186815260200185815260200184600181111561021557fe5b60ff1681526020018373ffffffffffffffffffffffffffffffffffffffff1673ffffffffffffffffffffffffffffffffffffffff168152602001828103825289818151815260200191508051906020019080838360005b8381101561028757808201518184015260208101905061026c565b50505050905090810190601f1680156102b45780820380516001836020036101000a031916815260200191505b509850505050505050505060405180910390f35b3480156102d457600080fd5b50610317600480360360208110156102eb57600080fd5b81019080803573ffffffffffffffffffffffffffffffffffffffff1690602001909291905050506108d9565b6040518080602001828103825283818151815260200191508051906020019060200280838360005b8381101561035a57808201518184015260208101905061033f565b505050509050019250505060405180910390f35b34801561037a57600080fd5b506103a76004803603602081101561039157600080fd5b8101908080359060200190929190505050610970565b005b3480156103b557600080fd5b50610402600480360360408110156103cc57600080fd5b81019080803573ffffffffffffffffffffffffffffffffffffffff16906020019092919080359060200190929190505050610aa4565b6040518082815260200191505060405180910390f35b6104446004803603602081101561042e57600080fd5b8101908080359060200190929190505050610ad4565b604051808215151515815260200191505060405180910390f35b34801561046a57600080fd5b50610473610e85565b005b34801561048157600080fd5b506104b86004803603604081101561049857600080fd5b810190808035906020019092919080359060200190929190505050610fca565b604051808273ffffffffffffffffffffffffffffffffffffffff1673ffffffffffffffffffffffffffffffffffffffff16815260200191505060405180910390f35b34801561050657600080fd5b506105336004803603602081101561051d57600080fd5b8101908080359060200190929190505050611017565b6040518082815260200191505060405180910390f35b34801561055557600080fd5b506105826004803603602081101561056c57600080fd5b8101908080359060200190929190505050611037565b005b34801561059057600080fd5b506105bd600480360360208110156105a757600080fd5b810190808035906020019092919050505061116c565b005b3480156105cb57600080fd5b506105d461123a565b6040518082815260200191505060405180910390f35b6000600254341415156105fc57600080fd5b60008342019050600360e06040519081016040528088815260200160015481526020018781526020018381526020018581526020016000600181111561063e57fe5b81526020013373ffffffffffffffffffffffffffffffffffffffff168152509080600181540180825580915050906001820390600052602060002090600602016000909192909190915060008201518160000190805190602001906106a4929190611244565b506020820151816001015560408201518160020155606082015181600301556080820151816004015560a08201518160050160006101000a81548160ff021916908360018111156106f157fe5b021790555060c08201518160050160016101000a81548173ffffffffffffffffffffffffffffffffffffffff021916908373ffffffffffffffffffffffffffffffffffffffff160217905550505050600560003373ffffffffffffffffffffffffffffffffffffffff1673ffffffffffffffffffffffffffffffffffffffff168152602001908152602001600020600154908060018154018082558091505090600182039060005260206000200160009091929091909150555060018054016001819055506001915050949350505050565b6003818154811015156107d257fe5b9060005260206000209060060201600091509050806000018054600181600116156101000203166002900480601f01602080910402602001604051908101604052809291908181526020018280546001816001161561010002031660029004801561087e5780601f106108535761010080835404028352916020019161087e565b820191906000526020600020905b81548152906001019060200180831161086157829003601f168201915b5050505050908060010154908060020154908060030154908060040154908060050160009054906101000a900460ff16908060050160019054906101000a900473ffffffffffffffffffffffffffffffffffffffff16905087565b6060600560008373ffffffffffffffffffffffffffffffffffffffff1673ffffffffffffffffffffffffffffffffffffffff16815260200190815260200160002080548060200260200160405190810160405280929190818152602001828054801561096457602002820191906000526020600020905b815481526020019060010190808311610950575b50505050509050919050565b8060038181548110151561098057fe5b906000526020600020906006020160050160019054906101000a900473ffffffffffffffffffffffffffffffffffffffff1673ffffffffffffffffffffffffffffffffffffffff163373ffffffffffffffffffffffffffffffffffffffff16141515610a54576040517f08c379a000000000000000000000000000000000000000000000000000000000815260040180806020018281038252600f8152602001807f4f6e6c79206f7267616e697a65722e000000000000000000000000000000000081525060200191505060405180910390fd5b600180811115610a6057fe5b600383815481101515610a6f57fe5b906000526020600020906006020160050160006101000a81548160ff02191690836001811115610a9b57fe5b02179055505050565b600560205281600052604060002081815481101515610abf57fe5b90600052602060002001600091509150505481565b600081600381815481101515610ae657fe5b9060005260206000209060060201600301544211151515610b6f576040517f08c379a000000000000000000000000000000000000000000000000000000000815260040180806020018281038252600e8152602001807f45787069726564206576656e742e00000000000000000000000000000000000081525060200191505060405180910390fd5b826001600382815481101515610b8157fe5b90600052602060002090600602016004015403610b9d82611017565b11151515610c13576040517f08c379a000000000000000000000000000000000000000000000000000000000815260040180806020018281038252600e8152602001807f4576656e742069732066756c6c2e00000000000000000000000000000000000081525060200191505060405180910390fd5b836000600382815481101515610c2557fe5b906000526020600020906006020160050160009054906101000a900460ff166001811115610c4f57fe5b141515610cc4576040517f08c379a00000000000000000000000000000000000000000000000000000000081526004018080602001828103825260108152602001807f4576656e7420697320636c6f7365642e0000000000000000000000000000000081525060200191505060405180910390fd5b600385815481101515610cd357fe5b90600052602060002090600602016002015434141515610d5b576040517f08c379a000000000000000000000000000000000000000000000000000000000815260040180806020018281038252600d8152602001807f57726f6e6720616d6f756e742e0000000000000000000000000000000000000081525060200191505060405180910390fd5b600385815481101515610d6a57fe5b906000526020600020906006020160050160019054906101000a900473ffffffffffffffffffffffffffffffffffffffff1673ffffffffffffffffffffffffffffffffffffffff166108fc600387815481101515610dc457fe5b9060005260206000209060060201600201549081150290604051600060405180830381858888f19350505050158015610e01573d6000803e3d6000fd5b50600460008681526020019081526020016000203390806001815401808255809150509060018203906000526020600020016000909192909190916101000a81548173ffffffffffffffffffffffffffffffffffffffff021916908373ffffffffffffffffffffffffffffffffffffffff1602179055505060019350505050919050565b6000809054906101000a900473ffffffffffffffffffffffffffffffffffffffff1673ffffffffffffffffffffffffffffffffffffffff163373ffffffffffffffffffffffffffffffffffffffff16141515610f49576040517f08c379a000000000000000000000000000000000000000000000000000000000815260040180806020018281038252600b8152602001807f4f6e6c79206f776e65722e00000000000000000000000000000000000000000081525060200191505060405180910390fd5b6000809054906101000a900473ffffffffffffffffffffffffffffffffffffffff1673ffffffffffffffffffffffffffffffffffffffff166108fc3073ffffffffffffffffffffffffffffffffffffffff16319081150290604051600060405180830381858888f19350505050158015610fc7573d6000803e3d6000fd5b50565b600460205281600052604060002081815481101515610fe557fe5b906000526020600020016000915091509054906101000a900473ffffffffffffffffffffffffffffffffffffffff1681565b600060046000838152602001908152602001600020805490509050919050565b8060038181548110151561104757fe5b906000526020600020906006020160050160019054906101000a900473ffffffffffffffffffffffffffffffffffffffff1673ffffffffffffffffffffffffffffffffffffffff163373ffffffffffffffffffffffffffffffffffffffff1614151561111b576040517f08c379a000000000000000000000000000000000000000000000000000000000815260040180806020018281038252600f8152602001807f4f6e6c79206f7267616e697a65722e000000000000000000000000000000000081525060200191505060405180910390fd5b6000600181111561112857fe5b60038381548110151561113757fe5b906000526020600020906006020160050160006101000a81548160ff0219169083600181111561116357fe5b02179055505050565b6000809054906101000a900473ffffffffffffffffffffffffffffffffffffffff1673ffffffffffffffffffffffffffffffffffffffff163373ffffffffffffffffffffffffffffffffffffffff16141515611230576040517f08c379a000000000000000000000000000000000000000000000000000000000815260040180806020018281038252600b8152602001807f4f6e6c79206f776e65722e00000000000000000000000000000000000000000081525060200191505060405180910390fd5b8060028190555050565b6000600254905090565b828054600181600116156101000203166002900490600052602060002090601f016020900481019282601f1061128557805160ff19168380011785556112b3565b828001600101855582156112b3579182015b828111156112b2578251825591602001919060010190611297565b5b5090506112c091906112c4565b5090565b6112e691905b808211156112e25760008160009055506001016112ca565b5090565b9056fea165627a7a723058200f3b218b89b8492d512f2127a683d27e9b973e1ddd21f2c1593c77365b6accc80029",
  "source": "pragma solidity ^0.5.0;\n\n/// @title A general use event registration demo for ConsenSys Academy\n/// @author Jukka Kekalainen \n\ncontract RegistrationSystem {\n    \n    /* Modifiers to halt execution if conditions are not met */\n\n    modifier onlyOwner() {\n        require(msg.sender == owner, \"Only owner.\");\n        _;\n    }\n    \n    /* Registration time needs to be earlier than expiration */\n    modifier notExpired(uint _eventNum) {\n        require(now <= events[_eventNum].expiresOn, \"Expired event.\");\n        _;\n    }\n    \n    /* Checking for full event, indexing start from zero */\n    modifier notFull(uint _eventNum) {\n        require(getParticipantCount(_eventNum) <= events[_eventNum].maxParticipants - 1, \"Event is full.\");\n        _;\n    }\n    \n    /* Event must be open for registration */\n    modifier notClosed(uint _eventNum) {\n        require(uint(events[_eventNum].state) == 0, \"Event is closed.\");\n        _;\n    }\n    \n    modifier onlyOrganizer(uint _eventNum) {\n        require(msg.sender == events[_eventNum].organizer, \"Only organizer.\");\n        _;\n    }\n    \n    /* Contract owner */\n    address payable owner;\n\n    /* Number of events, also used as ID for event-variable  */\n    uint eventCount;\n    \n    /* The contract cumulates a small fee on event creation */\n    uint eventCreationFee = 0.01 ether;\n    \n    /* An event can be open or closed*/\n    enum State {Open, Closed}\n\n    /* A struct defines properties of an single event  */\n\n    struct Event {\n        string name;\n        uint eventNum;    \n        uint price; //in wei\n        uint expiresOn;\n        uint maxParticipants;\n        State state;\n        address payable organizer;\n    }\n\n    /* All events */\n    Event[] public events;\n    mapping (uint => address payable[]) public participants;\n    mapping (address => uint[]) public eventsByCreator;\n  \n    /* A constructor function to iniate the contract */\n    constructor() public payable {\n        owner = msg.sender;\n        eventCount = 0;\n    }\n  \n    function createEvent (string memory _name,uint _price, uint _timeOpen, uint _maxParticipants)\n        public \n        payable\n        returns (bool) \n    { \n\n        require(msg.value == eventCreationFee);\n\n        uint expires = now + _timeOpen; \n        \n        events.push(Event(\n            {\n             name: _name,\n             eventNum: eventCount,\n             price: _price,\n             expiresOn: expires,\n             maxParticipants: _maxParticipants,\n             state: State.Open,\n             organizer:  msg.sender\n            }\n        ));\n        eventsByCreator[msg.sender].push(eventCount);\n        eventCount = eventCount + 1;\n        return true;\n    }\n  \n    function registerForEvent (uint _eventNum) \n        public\n        payable\n        notExpired(_eventNum)\n        notFull(_eventNum)\n        notClosed(_eventNum)\n        returns (bool) \n    {\n\n        // Checking the amount is no less or more than the price\n        require(msg.value == events[_eventNum].price, \"Wrong amount.\");\n        events[_eventNum].organizer.transfer(events[_eventNum].price);       \n\n        participants[_eventNum].push(msg.sender);\n        return true;\n    }\n\n    /* Organizer can close the event */  \n    function closeEvent (uint _eventNum) public onlyOrganizer(_eventNum)  {\n        events[_eventNum].state = State(1);\n    } \n    \n     /* Organizer can open the event */  \n    function openEvent (uint _eventNum) public onlyOrganizer(_eventNum)  {\n        events[_eventNum].state = State(0);\n    } \n    \n    \n    function getEventsByCreator(address _creator) external view returns (uint[] memory) {\n        return eventsByCreator[_creator];\n    }\n    \n    function getParticipantCount(uint _eventNum) public view returns (uint) {\n        return participants[_eventNum].length;\n    }\n\n    function withdrawFees() external onlyOwner {\n        owner.transfer(address(this).balance);\n    }\n    \n    /* Set fee in Wei, initial 0.01 ETH equals 10 000 000 000 000 000 Wei */\n    function setCreationFee(uint _fee) external onlyOwner {\n        eventCreationFee = _fee;\n    }\n    \n    /* Reads current fee in Wei */\n    function getCreationFee() external view returns(uint) {\n        return eventCreationFee;  \n    }\n    \n }",
  "sourcePath": "/home/jukka/Documents/final/final-project-jukkakekalainen/contracts/RegistrationSystem.sol",
  "compiler": {
    "name": "solc",
    "version": "0.5.0+commit.1d4f565a.Emscripten.clang"
  },
  "schemaVersion": "3.0.0",
  "updatedAt": "2019-01-04T21:03:30.912Z",
  "devdoc": {
    "author": "Jukka Kekalainen ",
    "methods": {},
    "title": "A general use event registration demo for ConsenSys Academy"
  },
  "userdoc": {
    "methods": {}
  }
}